{
  "_format": "hh-sol-artifact-1",
  "contractName": "CommentVerifier",
  "sourceName": "contracts/CommentVerifier.sol",
  "abi": [
    {
      "inputs": [
        {
          "internalType": "address",
          "name": "verifierAddress",
          "type": "address"
        },
        {
          "internalType": "bytes32",
          "name": "_merkleRoot",
          "type": "bytes32"
        }
      ],
      "stateMutability": "nonpayable",
      "type": "constructor"
    },
    {
      "inputs": [],
      "name": "commentCount",
      "outputs": [
        {
          "internalType": "uint256",
          "name": "",
          "type": "uint256"
        }
      ],
      "stateMutability": "view",
      "type": "function"
    },
    {
      "inputs": [
        {
          "internalType": "uint256",
          "name": "commentCount",
          "type": "uint256"
        }
      ],
      "name": "comments",
      "outputs": [
        {
          "internalType": "string",
          "name": "comment",
          "type": "string"
        }
      ],
      "stateMutability": "view",
      "type": "function"
    },
    {
      "inputs": [
        {
          "internalType": "string",
          "name": "comment",
          "type": "string"
        }
      ],
      "name": "hashCommentMessage",
      "outputs": [
        {
          "internalType": "bytes32",
          "name": "",
          "type": "bytes32"
        }
      ],
      "stateMutability": "pure",
      "type": "function"
    },
    {
      "inputs": [
        {
          "internalType": "bytes",
          "name": "_proof",
          "type": "bytes"
        },
        {
          "internalType": "bytes32[]",
          "name": "_publicInputs",
          "type": "bytes32[]"
        },
        {
          "internalType": "string",
          "name": "comment",
          "type": "string"
        }
      ],
      "name": "sendProof",
      "outputs": [],
      "stateMutability": "nonpayable",
      "type": "function"
    }
  ],
  "bytecode": "0x608060405234801561001057600080fd5b50604051610a9d380380610a9d83398101604081905261002f91610058565b600280546001600160a01b0319166001600160a01b039390931692909217909155600355610092565b6000806040838503121561006b57600080fd5b82516001600160a01b038116811461008257600080fd5b6020939093015192949293505050565b6109fc806100a16000396000f3fe608060405234801561001057600080fd5b506004361061004c5760003560e01c80632bbd5a6a1461005157806345ff20de146100775780634d1096d3146100805780638ebb4c1514610095575b600080fd5b61006461005f366004610585565b6100b5565b6040519081526020015b60405180910390f35b61006460005481565b61009361008e36600461060e565b6100f0565b005b6100a86100a33660046106cd565b610291565b60405161006e919061070a565b60006100c1825161032b565b826040516020016100d392919061073d565b604051602081830303815290604052805190602001209050919050565b6100f9816100b5565b61013884848080602002602001604051908101604052809392919081815260200183836020028082843760009201829052509250602091506103be9050565b146101815760405162461bcd60e51b8152602060048201526014602482015273092dcecc2d8d2c840dacae6e6c2ceca40d0c2e6d60631b60448201526064015b60405180910390fd5b6003548383602081811061019757610197610798565b90506020020135146101e15760405162461bcd60e51b8152602060048201526013602482015272125b9d985b1a59081b595c9adb19481c9bdbdd606a1b6044820152606401610178565b600254604051633a94343960e21b81526001600160a01b039091169063ea50d0e4906102179088908890889088906004016107ae565b602060405180830381865afa158015610234573d6000803e3d6000fd5b505050506040513d601f19601f820116820180604052508101906102589190610812565b5060008054815260016020526040902061027282826108c4565b506001600080828254610285919061099a565b90915550505050505050565b600160205260009081526040902080546102aa9061083b565b80601f01602080910402602001604051908101604052809291908181526020018280546102d69061083b565b80156103235780601f106102f857610100808354040283529160200191610323565b820191906000526020600020905b81548152906001019060200180831161030657829003601f168201915b505050505081565b6060600061033883610409565b600101905060008167ffffffffffffffff811115610358576103586104e2565b6040519080825280601f01601f191660200182016040528015610382576020820181803683370190505b5090508181016020015b600019016f181899199a1a9b1b9c1cb0b131b232b360811b600a86061a8153600a850494508461038c57509392505050565b600080835b83811015610400578581815181106103dd576103dd610798565b6020026020010151600883901b17915080806103f8906109ad565b9150506103c3565b50949350505050565b60008072184f03e93ff9f4daa797ed6e38ed64bf6a1f0160401b83106104485772184f03e93ff9f4daa797ed6e38ed64bf6a1f0160401b830492506040015b6d04ee2d6d415b85acef81000000008310610474576d04ee2d6d415b85acef8100000000830492506020015b662386f26fc10000831061049257662386f26fc10000830492506010015b6305f5e10083106104aa576305f5e100830492506008015b61271083106104be57612710830492506004015b606483106104d0576064830492506002015b600a83106104dc576001015b92915050565b634e487b7160e01b600052604160045260246000fd5b600082601f83011261050957600080fd5b813567ffffffffffffffff80821115610524576105246104e2565b604051601f8301601f19908116603f0116810190828211818310171561054c5761054c6104e2565b8160405283815286602085880101111561056557600080fd5b836020870160208301376000602085830101528094505050505092915050565b60006020828403121561059757600080fd5b813567ffffffffffffffff8111156105ae57600080fd5b6105ba848285016104f8565b949350505050565b60008083601f8401126105d457600080fd5b50813567ffffffffffffffff8111156105ec57600080fd5b6020830191508360208260051b850101111561060757600080fd5b9250929050565b60008060008060006060868803121561062657600080fd5b853567ffffffffffffffff8082111561063e57600080fd5b818801915088601f83011261065257600080fd5b81358181111561066157600080fd5b89602082850101111561067357600080fd5b60209283019750955090870135908082111561068e57600080fd5b61069a89838a016105c2565b909550935060408801359150808211156106b357600080fd5b506106c0888289016104f8565b9150509295509295909350565b6000602082840312156106df57600080fd5b5035919050565b60005b838110156107015781810151838201526020016106e9565b50506000910152565b60208152600082518060208401526107298160408501602087016106e6565b601f01601f19169190910160400192915050565b7f19457468657265756d205369676e6564204d6573736167653a0a00000000000081526000835161077581601a8501602088016106e6565b83519083019061078c81601a8401602088016106e6565b01601a01949350505050565b634e487b7160e01b600052603260045260246000fd5b6040815283604082015283856060830137600060608583018101829052601f19601f8701168301838103820160208501529081018490526001600160fb1b038411156107f957600080fd5b8360051b80866080840137016080019695505050505050565b60006020828403121561082457600080fd5b8151801515811461083457600080fd5b9392505050565b600181811c9082168061084f57607f821691505b60208210810361086f57634e487b7160e01b600052602260045260246000fd5b50919050565b601f8211156108bf57600081815260208120601f850160051c8101602086101561089c5750805b601f850160051c820191505b818110156108bb578281556001016108a8565b5050505b505050565b815167ffffffffffffffff8111156108de576108de6104e2565b6108f2816108ec845461083b565b84610875565b602080601f831160018114610927576000841561090f5750858301515b600019600386901b1c1916600185901b1785556108bb565b600085815260208120601f198616915b8281101561095657888601518255948401946001909101908401610937565b50858210156109745787850151600019600388901b60f8161c191681555b5050505050600190811b01905550565b634e487b7160e01b600052601160045260246000fd5b808201808211156104dc576104dc610984565b6000600182016109bf576109bf610984565b506001019056fea264697066735822122013014a63886ebc7f5a49ba8b14cbc53e892fafdef0e3329b716b64ad604ed3c664736f6c63430008130033",
  "linkReferences": {},
  "deployedLinkReferences": {}
}